:04000000A8EF04F071
:0F06000000496E6974205541525421200A0000B0
:1006100029502A10D8B40FEF03F011EF03F01AEFAE
:1006200003F029502A10D8A418EF03F01AEF03F0B2
:100630001FEF03F02750B3EC04F06CEF03F020EE53
:100640000AF02950D9262A50DA22DE50DE10D8B41A
:100650002CEF03F02EEF03F049EF03F020EE0AF049
:100660002950D9262A50DA2210EE03F02950E1262B
:100670002A50E222DE50E65CE650800A2F6EDE5001
:10068000800A2F58D8B047EF03F049EF03F06CEF22
:1006900003F020EE03F02950D9262A50DA22DECFCB
:1006A0002BF0DDCF2CF029C0D9FF2AC0DAFFDECF36
:1006B0002DF0DDCF2EF02B502D24D96E2C502E2076
:1006C000DA6E27C0DFFF20EE03F02950D9262A502A
:1006D000DA22DE2A000EDD221200286E9CEF03F0E3
:1006E00081AA75EF03F078EF03F0010E79EF03F0C4
:1006F000000EBAEF03F081A880EF03F083EF03F060
:10070000010E84EF03F0000EBAEF03F081AE8BEF21
:1007100003F08EEF03F0010E8FEF03F0000EBAEF3F
:1007200003F081AC96EF03F099EF03F0010E9AEF1E
:1007300003F0000EBAEF03F02850266E276A275008
:10074000000AD8B4A6EF03F0B9EF03F02650010A6F
:10075000D8B470EF03F0030AD8B47BEF03F0010ABA
:10076000D8B486EF03F0070AD8B491EF03F0B9EFDD
:1007700003F0000E120032C0D9FF33C0DAFFDECF23
:10078000F6FFDDCFF7FF0800F550250AD8A4CBEF20
:1007900003F0CDEF03F0E5EF03F032C0D9FF33C033
:1007A000DAFFDE2A000EDD22000E226E000E216E20
:1007B00021C025F02368246832C0D9FF33C0DAFF96
:1007C000DE2A000EDD22F9EF03F032C0D9FF33C07C
:1007D000DAFFDECFF6FFDDCFF7FF0800F550276E1A
:1007E000286A30C029F031C02AF008EC03F0DCEFB1
:1007F00003F012002C6E19EF04F029B002D08390A0
:1008000001D0838036EF04F029B002D0839201D06A
:10081000838236EF04F029B002D0839401D0838420
:1008200036EF04F029B002D0839601D0838636EFEC
:1008300004F02C502A6E2B6A2B50000AD8B423EFF8
:1008400004F036EF04F02A50010AD8B4FDEF03F0AB
:10085000030AD8B404EF04F0010AD8B40BEF04F093
:10086000070AD8B412EF04F036EF04F01200BEEC21
:1008700004F09BEC04F0010E3E6E060E3F6E88EC19
:1008800004F0010E6DEC03F0296E010EFAEC03F09A
:10089000020E6DEC03F0296E020EFAEC03F0030E6B
:1008A0006DEC03F0296E030EFAEC03F0040E6DEC10
:1008B00003F0296E040EFAEC03F041EF04F000EFB0
:1008C00000F038C03CF039C03DF075EF04F036C0A0
:1008D00030F037C031F03C0E326E000E336E3AC04D
:1008E00034F03BC035F0BBEC03F03CC0F6FF3DC03C
:1008F000F7FF0800F5500009D8A481EF04F083EF5A
:1009000004F067EF04F0000E376E000E366E120032
:10091000400E406E000E416E000E366E000E376EB9
:100920003EC038F03FC039F0400E3A6E000E3B6ECC
:1009300061EC04F01200948C948E220EAF6E000EC7
:10094000B06EB886AC84AC98AC8AAB8EAB88120023
:1009500000EE01F0250EEE6AE806FDE1000EF86EED
:10096000000137EF04F0266E26C0ADFFACA2BBEF4E
:1009700004F0BDEF04F0B6EF04F012000F0EC16EEC
:10098000000E956E000E836E9368F19ED09EF286E7
:02099000120053
:020000040020DA
:08000000FFFFFFFFFFFFFFFF00
:020000040030CA
:0E000000FF01191EFF8385FF0FC00FE00F40A8
:00000001FF
