:0400000007EF00F016
:0A00080065822AED06F007EF0BF009
:1006000000496E6974205541525421200A007065DA
:1006100072646575200067616E686F7520002564DF
:03062000200000B7
:100624002DEC0BF040EC0BF0010E4A6E060E4B6EF7
:100634001AEC0BF020EEC0F0070EDE6AE806FDE2CD
:10064400000E0001E56F000EE46F000EB96F000E9E
:10065400B86F000EBF6F000EBE6F20EEC8F0070E1D
:10066400DE6AE806FDE2000ED16F000ED06F000EC8
:10067400BB6F000EBA6F000EBD6F000EBC6F0001A1
:10068400E451E511D8A449EF03F04BEF03F0C4EFB4
:1006940005F0B851B911D8A452EF03F054EF03F0A8
:1006A40086EF03F0000ED36F000ED26F33EC0AF026
:1006B400030E17140001D66FD76B010ED625D66F23
:1006C400000ED721D76FD890D235D96ED335DA6ED4
:1006D400C00ED926000EDA22D6C0DEFFD7C0DDFF59
:1006E400D24BD32BD3BF80EF03F0D35109E1040ED7
:1006F400D25DD8A080EF03F082EF03F058EF03F04F
:10070400000EB96F010EB86FBE51BF11D8A48DEFA2
:1007140003F08FEF03F0ECEF03F0000ED96F000E3F
:10072400D86F1E0E4A6E060E4B6ED890D835D96E11
:10073400D935DA6EC00ED926000EDA22DECF4CF09F
:10074400DDCF4DF01AEC0BF0010E0B6ED8900001CA
:10075400D835D96ED935DA6EC00ED926000EDA2214
:10076400DF50B9EC09F0150E516E4B0E506EBE0EF3
:10077400E82EFED7502EFCD7512EFAD700D0000E0B
:100784000B6ED8900001D835D96ED935DA6EC00E0B
:10079400D926000EDA22DF50B9EC09F00B0E516EA7
:1007A400260E506E5E0EE82EFED7502EFCD7512E2C
:1007B400FAD70001D84BD92BD9BFEAEF03F0D951AE
:1007C40009E1040ED85DD8A0EAEF03F0ECEF03F0E2
:1007D40093EF03F0000EBF6F010EBE6F96059711E5
:1007E400D8A4F7EF03F0F9EF03F04CEF04F0000E98
:1007F400976F000E966F000ED16F010ED06F000E32
:10080400DB6F000EDA6FDBBF11EF04F0DB5109E19F
:10081400040EDA5DD8A011EF04F013EF04F015EF25
:1008240004F054EF05F0D890DA35D96EDB35DA6E82
:10083400C80ED926000EDA22DE50DE10D8A425EF29
:1008440004F027EF04F048EF04F0D890DA35D96EBD
:10085400DB35DA6EC80ED926000EDA22010EDE6E02
:10086400000EDD6EDBBF42EF04F0DB5107E1030E47
:10087400DA5DD8B040EF04F042EF04F054EF05F035
:10088400000ED16F000ED06F54EF05F0DA4BDB2B66
:1008940005EF04F094059511D8A453EF04F055EF37
:1008A40004F0A4EF04F0000E956F000E946F000E98
:1008B400D16F010ED06F000EDD6F000EDC6FDDBF57
:1008C4006DEF04F0DD5109E1040EDC5DD8A06DEF9D
:1008D40004F06FEF04F071EF04F054EF05F0D890DA
:1008E400DC35D96EDD35DA6EC80ED926000EDA2273
:1008F400DE50DE10D8A481EF04F083EF04F0A0EF03
:1009040004F0D890DC35D96EDD35DA6EC80ED92600
:10091400000EDA22020EDE6E000EDD6EDDBF9EEFEB
:1009240004F0DD5107E1030EDC5DD8B09CEF04F068
:100934009EEF04F054EF05F042EF04F0DC4BDD2BA6
:1009440061EF04F092059311D8A4ABEF04F0ADEF7E
:1009540004F0FCEF04F0000E936F000E926F000E93
:10096400D16F010ED06F000EDF6F000EDE6FDFBFA0
:10097400C5EF04F0DF5109E1040EDE5DD8A0C5EF38
:1009840004F0C7EF04F0C9EF04F054EF05F0D89079
:10099400DE35D96EDF35DA6EC80ED926000EDA22BE
:1009A400DE50DE10D8A4D9EF04F0DBEF04F0F8EF4A
:1009B40004F0D890DE35D96EDF35DA6EC80ED9264C
:1009C400000EDA22030EDE6E000EDD6EDFBFF6EFE0
:1009D40004F0DF5107E1030EDE5DD8B0F4EF04F05C
:1009E400F6EF04F054EF05F042EF04F0DE4BDF2B9A
:1009F400B9EF04F090059111D8A403EF05F005EFC9
:100A040005F054EF05F0000E916F000E906F000E8C
:100A1400D16F010ED06F000EE16F000EE06FE1BFE9
:100A24001DEF05F0E15109E1040EE05DD8A01DEFD2
:100A340005F01FEF05F021EF05F054EF05F0D89015
:100A4400E035D96EE135DA6EC80ED926000EDA2209
:100A5400DE50DE10D8A431EF05F033EF05F050EF8F
:100A640005F0D890E035D96EE135DA6EC80ED92696
:100A7400000EDA22040EDE6E000EDD6EE1BF4EEFD4
:100A840005F0E15107E1030EE05DD8B04CEF05F04D
:100A94004EEF05F054EF05F042EF04F0E04BE12B8C
:100AA40011EF05F0D005D111D8A45BEF05F05DEF8F
:100AB40005F041EF03F0000EE36F000EE26FE3BFB9
:100AC4006DEF05F0E35109E1040EE25DD8A06DEF8E
:100AD40005F06FEF05F071EF05F0ABEF05F01E0EBA
:100AE4004A6E060E4B6ED890E235D96EE335DA6E57
:100AF400C80ED926000EDA22DECF4CF0DDCF4DF041
:100B04001AEC0BF0D8900001E235D96EE335DA6EB9
:100B1400C00ED926000EDA22D890E235E16EE33514
:100B2400E26EC80EE126000EE222DE50E61809E16C
:100B3400DE50E618D8B4A1EF05F0A3EF05F0A7EF57
:100B440005F0000EBB6F010EBA6FE24BE32B61EFB1
:100B540005F0BA05BB11D8A4B2EF05F0B4EF05F067
:100B6400BCEF05F00E0E4A6E060E4B6E1AEC0BF03F
:100B740041EF03F0160E4A6E060E4B6E1AEC0BF0A4
:100B840041EF03F0E405E511D8A4CBEF05F0CDEF78
:100B940005F0CFEF05F041EF03F0020EE419E51183
:100BA400D8A4D7EF05F0D9EF05F0DBEF05F041EF5E
:100BB40003F0030EE419E511D8A4E3EF05F0E5EF23
:100BC40005F026EF06F0BC51BD11D8A4ECEF05F0FA
:100BD400EEEF05F041EF03F0000ED56F000ED46F79
:100BE400D5BFFEEF05F0D55109E1040ED45DD8A0C0
:100BF400FEEF05F000EF06F002EF06F020EF06F03E
:100C040033EC0AF0030E17140001D66FD76B010EF4
:100C1400D625D66F000ED721D76FD890D435D96E8C
:100C2400D535DA6EC00ED926000EDA22D6C0DEFF24
:100C3400D7C0DDFFD44BD52BF2EF05F0000EBD6F0E
:100C4400010EBC6F41EF03F041EF03F007EF00F03A
:100C54000600F2A030EF06F032EF06F03DEF07F0A9
:100C640081BA37EF06F039EF06F078EF06F0020E9E
:100C7400026E040E016EBA0EE82EFED7012EFCD7CA
:100C8400022EFAD700D081BA4AEF06F04CEF06F0F4
:100C94003CEF07F0000E0001976F010E966F838002
:100CA400000E046E000E036E8284030E016E980E15
:100CB400E82EFED7012EFCD78294030E016E980E07
:100CC400E82EFED7012EFCD7034A042A04BE73EF94
:100CD40006F0045008E10328D8A073EF06F075EF7E
:100CE40006F056EF06F083903CEF07F081B87DEFF5
:100CF40006F07FEF06F0BEEF06F0020E026E040E61
:100D0400016EBA0EE82EFED7012EFCD7022EFAD7BA
:100D140000D081B890EF06F092EF06F03CEF07F0B8
:100D2400000E0001956F010E946F8382000E066E13
:100D3400000E056E8284E40E00D000D0E82EFCD7AD
:100D440000D000D08294E40E00D000D0E82EFCD76E
:100D540000D000D0054A062A06BEB9EF06F00650B8
:100D640008E10528D8A0B9EF06F0BBEF06F09CEF28
:100D740006F083923CEF07F081BEC3EF06F0C5EFA7
:100D840006F0FEEF06F0020E026E040E016EBA0EBD
:100D9400E82EFED7012EFCD7022EFAD700D081BE52
:100DA400D6EF06F0D8EF06F03CEF07F0000E000196
:100DB400936F010E926F8384000E086E000E076E0F
:100DC4008284F00E00D0E82EFDD78294F00E00D07D
:100DD400E82EFDD7074A082A08BEF9EF06F00850A6
:100DE40008E10728D8A0F9EF06F0FBEF06F0E2EFE0
:100DF40006F083943CEF07F081BC03EF07F005EFA6
:100E040007F03CEF07F0020E026E040E016EBA0EFC
:100E1400E82EFED7012EFCD7022EFAD700D081BCD3
:100E240016EF07F018EF07F03CEF07F0000E000193
:100E3400916F010E906F8386000E0A6E000E096E8C
:100E44008284A00E00D0E82EFDD78294A00E00D09C
:100E5400E82EFDD7094A0A2A0ABE39EF07F00A50DC
:100E640008E10928D8A039EF07F03BEF07F022EF9B
:100E740007F08396F290659211002ABE44EF07F0C2
:100E840047EF07F0010E48EF07F0000E336E3350C2
:100E9400D8B44FEF07F051EF07F055EF07F0296C86
:100EA4002A1ED8B02A2A5FBE5CEF07F05AEF07F07B
:100EB40062EF07F0000E2E6E010E2D6E66EF07F046
:100EC4005EC02DF05FC02EF05CC02FF05DC030F02E
:100ED4003350D8B470EF07F072EF07F089EF07F0E2
:100EE4002F06D8A030063350D8A47BEF07F07DEF4F
:100EF40007F083EF07F0000E2C6E2B0E2B6E87EF9E
:100F040007F0000E2C6E2D0E2B6E2BC033F0000E4E
:100F1400326E1F0E316E000E0001B76FC2EF07F084
:100F24003106D8A03206980E3124D96E000E322034
:100F3400DA6E29C00BF02AC00CF0000E0E6E0A0EF9
:100F44000D6E61EC09F00BC011F00CC012F0E7EC6F
:100F54000AF01150300FDF6E2D06D8A02E062F0692
:100F6400D8A0300629C00BF02AC00CF0000E0E6E7B
:100F74000A0E0D6EFFEC08F00BC029F00CC02AF02D
:100F840032BECDEF07F0325008E13104D8A0CDEFE6
:100F940007F0CFEF07F0E5EF07F029502A10D8A4A7
:100FA400D6EF07F0D8EF07F092EF07F02EBEE5EF8B
:100FB40007F02E5006E12D04D8B0E3EF07F0E5EF7B
:100FC40007F092EF07F03350D8B4EBEF07F0EDEFF2
:100FD40007F0F8EF07F03106D8A03206980E312456
:100FE400D96E000E3220DA6E33C0DFFF27C01CF04A
:100FF40028C01DF0980E31241E6E000E32201F6E84
:101004002FC020F030C021F0F6EC09F0120036C0F9
:10101400D9FF37C0DAFFDECFF6FFDDCFF7FF0800D8
:10102400F550250AD8A419EF08F01BEF08F085EF56
:1010340008F036C0D9FF37C0DAFFDE2A000EDD2201
:10104400000E5D6E000E5C6E5CC060F05E685F68F2
:1010540036C0D9FF37C0DAFFDECF40F0DDCF41F034
:1010640040C0F6FF41C0F7FF0800F550640AD8B449
:101074003EEF08F040EF08F04EEF08F040C0F6FFF6
:1010840041C0F7FF0800F550690AD8A44CEF08F0F6
:101094004EEF08F07CEF08F038C0D9FF39C0DAFF12
:1010A400DFCF3AF0020EDE26DFCF3BF0000EDD226A
:1010B4003AC0D9FF3BC0DAFFDECF3CF0DDCF3DF0D4
:1010C400010E40243A6E000E41203B6E36C0D9FF1B
:1010D40037C0DAFF3AC0DEFF3BC0DDFF34C027F083
:1010E40035C028F03CC029F03DC02AF03FEC07F0A1
:1010F40099EF08F036C0D9FF37C0DAFFDE2A000EB8
:10110400DD2299EF08F036C0D9FF37C0DAFFDECF11
:10111400F6FFDDCFF7FF0800F5500C6E0D6A34C002
:101124000EF035C00FF09AEC08F07CEF08F01200D6
:101134000E500F10D8B4A1EF08F0A3EF08F0ACEFF5
:1011440008F00E500F10D8A4AAEF08F0ACEF08F086
:10115400B1EF08F00C504DEC0BF0FEEF08F020EE70
:101164000AF00E50D9260F50DA22DE50DE10D8B421
:10117400BEEF08F0C0EF08F0DBEF08F020EE0AF055
:101184000E50D9260F50DA2210EE03F00E50E1264D
:101194000F50E222DE50E65CE650800A146EDE5008
:1011A400800A1458D8B0D9EF08F0DBEF08F0FEEF4E
:1011B40008F020EE03F00E50D9260F50DA22DECFCD
:1011C40010F0DDCF11F00EC0D9FF0FC0DAFFDECF73
:1011D40012F0DDCF13F010501224D96E11501320E9
:1011E400DA6E0CC0DFFF20EE03F00E50D9260F504C
:1011F400DA22DE2A000EDD221200000E106E0EBE70
:1012040008EF09F006EF09F00EEF09F00D6C0E1E61
:10121400D8B00E2A010E106E0CBE15EF09F013EFB4
:1012240009F01BEF09F00B6C0C1ED8B00C2A010E50
:10123400101A000E126E000E116E0D500E10D8B45E
:1012440026EF09F028EF09F050EF09F0010E0F6EB8
:1012540030EF09F0D8900D360E360F2A0EAE35EF6A
:1012640009F037EF09F02CEF09F0D8901136123657
:101274000D500B5C0E500C58D8A043EF09F045EF0D
:1012840009F04AEF09F00D500B5E0E500C5A118014
:10129400D8900E320D320F2E37EF09F01050D8B41B
:1012A40056EF09F058EF09F05CEF09F0116C121ECB
:1012B400D8B0122A11C00BF012C00CF01200000EAC
:1012C400106E0CBE6AEF09F068EF09F070EF09F0D8
:1012D4000B6C0C1ED8B00C2A010E106E0EBE77EFEC
:1012E40009F075EF09F07BEF09F00D6C0E1ED8B014
:1012F4000E2A0D500E10D8B482EF09F084EF09F0D5
:10130400A8EF09F0010E0F6E8CEF09F0D8900D369E
:101314000E360F2A0EAE91EF09F093EF09F088EF25
:1013240009F00D500B5C0E500C58D8A09CEF09F03E
:101334009EEF09F0A2EF09F00D500B5E0E500C5A0F
:10134400D8900E320D320F2E93EF09F01050D8B40E
:10135400AEEF09F0B0EF09F0B4EF09F00B6C0C1E1E
:10136400D8B00C2A0BC00BF00CC00CF012000E6E9F
:10137400D8EF09F00BB002D0839001D08380F5EF51
:1013840009F00BB002D0839201D08382F5EF09F00B
:101394000BB002D0839401D08384F5EF09F00BB035
:1013A40002D0839601D08386F5EF09F00E500C6EBF
:1013B4000D6A0D50000AD8B4E2EF09F0F5EF09F018
:1013C4000C50010AD8B4BCEF09F0030AD8B4C3EF37
:1013D40009F0010AD8B4CAEF09F0070AD8B4D1EF6A
:1013E40009F0F5EF09F0120021BEFBEF09F0FDEF63
:1013F40009F003EF0AF020C025F021C026F007EF22
:101404000AF0000E266E000E256E000E246E000EED
:10141400236E19EF0AF0000E0D6E200E0C6E1CC028
:101424000EF01DC00FF09AEC08F0234A242A255030
:10143400235C2450800A226E2650800A2258D8A0A9
:1014440026EF0AF028EF0AF00DEF0AF01EC015F09F
:101454001FC016F01CC017F01DC018F0C5EC0AF030
:10146400120061C00BF062C00CF063C00DF064C0E8
:101474000EF02D0E0F6E7F0E106E950E116E4C0E2B
:10148400126E69EC0AF0010E0B24616E000E0C2042
:10149400626E000E0D20636E000E0E20646E61C03D
:1014A40019F062C01AF063C01BF064C01CF0120E85
:1014B40061EF0AF0D8901C321B321A321932E82E2E
:1014C4005CEF0AF019C017F01AC018F01200000EF1
:1014D400136E000E146E000E156E000E166E0BA029
:1014E40076EF0AF078EF0AF080EF0AF00F50132637
:1014F400105014221150152212501622D8900F3673
:10150400103611361236D8900E320D320C320B32A0
:101514000B500C100D100E10D8A493EF0AF095EF99
:101524000AF071EF0AF013C00BF014C00CF015C0F0
:101534000DF016C00EF0120044C048F045C049F04A
:10154400B2EF0AF042C034F043C035F0480E366EB4
:10155400000E376E46C038F047C039F009EC08F089
:1015640048C0F6FF49C0F7FF0800F5500009D8A4A9
:10157400BEEF0AF0C0EF0AF0A4EF0AF0000E436ECB
:10158400000E426E1200000E1B6E000E1A6ED6EF95
:101594000AF019C00CF00D6A17C00EF018C00FF055
:1015A4009AEC08F01A4A1B2A1A501524D96E1B50BB
:1015B4001620DA6EDF50196E1950D8A4E4EF0AF041
:1015C400E6EF0AF0CBEF0AF0120012BEF4EF0AF0D5
:1015D400125006E11104D8B0F2EF0AF0F4EF0AF069
:1015E40002EF0BF011C013F012C014F0131E141EFE
:1015F400134A142A13C011F014C012F006EF0BF0B2
:1016040011C011F012C012F0120000EE80F0380E7A
:10161400EE6AE806FDE100EE54F0110EEE6AE8060B
:10162400FDE165906592000EF86E000112EF03F083
:101634004C0E4E6E000E4F6E000E426E000E436E48
:101644004AC044F04BC045F04E0E466E000E476E45
:101654009EEC0AF012000F0EC16E000E956E000E85
:10166400836E93689494F19ED09EF292F090F286E9
:10167400F19CF19AF288F086F28E1200948C948E8A
:10168400220EAF6E000EB06EB886AC84AC98AC8AF5
:10169400AB8EAB8812000B6E0BC0ADFFACA255EF46
:0C16A4000BF057EF0BF050EF0BF01200B2
:020000040020DA
:08000000FFFFFFFFFFFFFFFF00
:020000040030CA
:0E000000FF01191EFF8385FF0FC00FE00F40A8
:00000001FF
