:0400000013EF08F002
:1006000000496E6974205541525421200A00256426
:03061000200000C7
:100614003CEC08F024EC08F0010E406E060E416E2E
:1006240000EC08F020EE48F0070EDE6AE806FDE272
:10063400000E516E000E506E2CEC07F0030E0D14DC
:10064400546E556A010E5424546E000E5520556E96
:10065400D8905034D96E5134DA6E480ED926000E33
:10066400DA2254C0DEFF55C0DDFF504A512A51BE84
:1006740045EF03F0515009E1040E505CD8A045EF5A
:1006840003F047EF03F01EEF03F0000E576E000E69
:10069400566E0E0E406E060E416ED8905634D96ECC
:1006A4005734DA6E480ED926000EDA22DECF42F035
:1006B400DDCF43F000EC08F0010E016ED890563403
:1006C400D96E5734DA6E480ED926000EDA22DF507E
:1006D400B2EC06F0150E476E4B0E466EBE0EE82EBB
:1006E400FED7462EFCD7472EFAD700D0000E016E57
:1006F400D8905634D96E5734DA6E480ED926000E87
:10070400DA22DF50B2EC06F00B0E476E260E466E70
:100714005E0EE82EFED7462EFCD7472EFAD7564A51
:10072400572A57BE9FEF03F0575009E1040E565C59
:10073400D8A09FEF03F0A1EF03F04BEF03F0290ED5
:10074400476E960E466E7F0EE82EFED7462EFCD7D9
:10075400472EFAD700F0000E536E000E526E2CECAA
:1007640007F0030E0D14546E556A010E5424546E92
:10077400000E5520556ED8905234D96E5334DA6E2B
:10078400480ED926000EDA2254C0DEFF55C0DDFF24
:10079400524A532A53BED8EF03F0535009E1040ED2
:1007A400525CD8A0D8EF03F0DAEF03F0B1EF03F016
:1007B400000E596E000E586E0E0E406E060E416EFF
:1007C400D8905834D96E5934DA6E480ED926000EB2
:1007D400DA22DECF42F0DDCF43F000EC08F0010E68
:1007E400016ED8905834D96E5934DA6E480ED92631
:1007F400000EDA22DF50B2EC06F0150E476E4B0EF7
:10080400466EBE0EE82EFED7462EFCD7472EFAD7EC
:1008140000D0000E016ED8905834D96E5934DA6E77
:10082400480ED926000EDA22DF50B2EC06F00B0E89
:10083400476E260E466E5E0EE82EFED7462EFCD779
:10084400472EFAD7584A592A59BE32EF04F0595064
:1008540009E1040E585CD8A032EF04F034EF04F040
:10086400DEEF03F034EF04F000EF00F020BE3DEFC4
:1008740004F040EF04F0010E41EF04F0000E296E85
:100884002950D8B448EF04F04AEF04F04EEF04F0D6
:100894001F6C201ED8B0202A6DBE55EF04F053EF14
:1008A40004F05BEF04F0000E246E010E236E5FEF84
:1008B40004F06CC023F06DC024F06AC025F06BC056
:1008C40026F02950D8B469EF04F06BEF04F082EFFE
:1008D40004F02506D8A026062950D8A474EF04F005
:1008E40076EF04F07CEF04F0000E226E2B0E216EE6
:1008F40080EF04F0000E226E2D0E216E21C029F02F
:10090400000E286E1F0E276E000E00019F6FBBEFB6
:1009140004F02706D8A02806800E2724D96E000EDE
:100924002820DA6E1FC001F020C002F0000E046E11
:100934000A0E036E5AEC06F001C007F002C008F07C
:10094400E0EC07F00750300FDF6E2306D8A0240632
:100954002506D8A026061FC001F020C002F0000E14
:10096400046E0A0E036EF8EC05F001C01FF002C01D
:1009740020F028BEC6EF04F0285008E12704D8A0D0
:10098400C6EF04F0C8EF04F0DEEF04F01F502010AF
:10099400D8A4CFEF04F0D1EF04F08BEF04F024BE21
:1009A400DEEF04F0245006E12304D8B0DCEF04F0B9
:1009B400DEEF04F08BEF04F02950D8B4E4EF04F038
:1009C400E6EF04F0F1EF04F02706D8A02806800E25
:1009D4002724D96E000E2820DA6E29C0DFFF1DC03F
:1009E40012F01EC013F0800E2724146E000E28206F
:1009F400156E25C016F026C017F0EFEC06F01200B5
:100A04002CC0D9FF2DC0DAFFDECFF6FFDDCFF7FF14
:100A14000800F550250AD8A412EF05F014EF05F0EC
:100A24007EEF05F02CC0D9FF2DC0DAFFDE2A000EC0
:100A3400DD22000E6B6E000E6A6E6AC06EF06C688A
:100A44006D682CC0D9FF2DC0DAFFDECF36F0DDCFC4
:100A540037F036C0F6FF37C0F7FF0800F550640AD8
:100A6400D8B437EF05F039EF05F047EF05F036C09D
:100A7400F6FF37C0F7FF0800F550690AD8A445EF20
:100A840005F047EF05F075EF05F02EC0D9FF2FC034
:100A9400DAFFDFCF30F0020EDE26DFCF31F0000EBA
:100AA400DD2230C0D9FF31C0DAFFDECF32F0DDCF36
:100AB40033F0010E3624306E000E3720316E2CC018
:100AC400D9FF2DC0DAFF30C0DEFF31C0DDFF2AC000
:100AD4001DF02BC01EF032C01FF033C020F038ECE4
:100AE40004F092EF05F02CC0D9FF2DC0DAFFDE2A06
:100AF400000EDD2292EF05F02CC0D9FF2DC0DAFFE5
:100B0400DECFF6FFDDCFF7FF0800F550026E036A73
:100B14002AC004F02BC005F093EC05F075EF05F046
:100B2400120004500510D8B49AEF05F09CEF05F0BC
:100B3400A5EF05F004500510D8A4A3EF05F0A5EF28
:100B440005F0AAEF05F0025031EC08F0F7EF05F0DC
:100B540020EE0AF00450D9260550DA22DE50DE10C9
:100B6400D8B4B7EF05F0B9EF05F0D4EF05F020EEF7
:100B74000AF00450D9260550DA2210EE03F004508E
:100B8400E1260550E222DE50E65CE650800A0A6E59
:100B9400DE50800A0A58D8B0D2EF05F0D4EF05F041
:100BA400F7EF05F020EE03F00450D9260550DA22C1
:100BB400DECF06F0DDCF07F004C0D9FF05C0DAFFB1
:100BC400DECF08F0DDCF09F006500824D96E0750B7
:100BD4000920DA6E02C0DFFF20EE03F00450D926AC
:100BE4000550DA22DE2A000EDD221200000E066E07
:100BF40004BE01EF06F0FFEF05F007EF06F0036C0B
:100C0400041ED8B0042A010E066E02BE0EEF06F0D2
:100C14000CEF06F014EF06F0016C021ED8B0022AA5
:100C2400010E061A000E086E000E076E0350041023
:100C3400D8B41FEF06F021EF06F049EF06F0010EDD
:100C4400056E29EF06F0D89003360436052A04AE63
:100C54002EEF06F030EF06F025EF06F0D8900736B9
:100C640008360350015C04500258D8A03CEF06F04B
:100C74003EEF06F043EF06F00350015E0450025AC3
:100C84000780D89004320332052E30EF06F0065068
:100C9400D8B44FEF06F051EF06F055EF06F0076CAD
:100CA400081ED8B0082A07C001F008C002F01200DC
:100CB400000E066E02BE63EF06F061EF06F069EF08
:100CC40006F0016C021ED8B0022A010E066E04BEA4
:100CD40070EF06F06EEF06F074EF06F0036C041E7E
:100CE400D8B0042A03500410D8B47BEF06F07DEF8B
:100CF40006F0A1EF06F0010E056E85EF06F0D89020
:100D040003360436052A04AE8AEF06F08CEF06F0AB
:100D140081EF06F00350015C04500258D8A095EF0F
:100D240006F097EF06F09BEF06F00350015E0450C7
:100D3400025AD89004320332052E8CEF06F0065086
:100D4400D8B4A7EF06F0A9EF06F0ADEF06F0016CFA
:100D5400021ED8B0022A01C001F002C002F0120043
:100D6400046ED1EF06F001B002D0839001D08380ED
:100D7400EEEF06F001B002D0839201D08382EEEF51
:100D840006F001B002D0839401D08384EEEF06F024
:100D940001B002D0839601D08386EEEF06F00450B2
:100DA400026E036A0350000AD8B4DBEF06F0EEEFDC
:100DB40006F00250010AD8B4B5EF06F0030AD8B41D
:100DC400BCEF06F0010AD8B4C3EF06F0070AD8B4A2
:100DD400CAEF06F0EEEF06F0120017BEF4EF06F0CD
:100DE400F6EF06F0FCEF06F016C01BF017C01CF07F
:100DF40000EF07F0000E1C6E000E1B6E000E1A6E44
:100E0400000E196E12EF07F0000E036E200E026E34
:100E140012C004F013C005F093EC05F0194A1A2A25
:100E24001B50195C1A50800A186E1C50800A1858FE
:100E3400D8A01FEF07F021EF07F006EF07F014C06A
:100E44000BF015C00CF012C00DF013C00EF0BEEC88
:100E540007F012006FC001F070C002F071C003F01F
:100E640072C004F02D0E056E7F0E066E950E076E91
:100E74004C0E086E62EC07F0010E01246F6E000E3A
:100E84000220706E000E0320716E000E0420726E3C
:100E94006FC00FF070C010F071C011F072C012F08A
:100EA400120E5AEF07F0D8901232113210320F326C
:100EB400E82E55EF07F00FC00DF010C00EF0120031
:100EC400000E096E000E0A6E000E0B6E000E0C6E04
:100ED40001A06FEF07F071EF07F079EF07F005500D
:100EE400092606500A2207500B2208500C22D890DB
:100EF4000536063607360836D890043203320232F5
:100F040001320150021003100410D8A48CEF07F032
:100F14008EEF07F06AEF07F009C001F00AC002F093
:100F24000BC003F00CC004F012003AC03EF03BC00A
:100F34003FF0ABEF07F038C02AF039C02BF03E0E7B
:100F44002C6E000E2D6E3CC02EF03DC02FF002EC36
:100F540005F03EC0F6FF3FC0F7FF0800F55000095A
:100F6400D8A4B7EF07F0B9EF07F09DEF07F0000E34
:100F7400396E000E386E1200000E116E000E106EE7
:100F8400CFEF07F00FC002F0036A0DC004F00EC0EB
:100F940005F093EC05F0104A112A10500B24D96E79
:100FA40011500C20DA6EDF500F6E0F50D8A4DDEF15
:100FB40007F0DFEF07F0C4EF07F0120008BEEDEF13
:100FC40007F0085006E10704D8B0EBEF07F0EDEFA7
:100FD40007F0FBEF07F007C009F008C00AF0091E8C
:100FE4000A1E094A0A2A09C007F00AC008F0FFEFDE
:100FF40007F007C007F008C008F01200420E446E64
:10100400000E456E000E386E000E396E40C03AF088
:1010140041C03BF0440E3C6E000E3D6E97EC07F071
:10102400120000EE80F0200EEE6AE806FDE100EE0C
:101034005AF0190EEE6AE806FDE1000EF86E0001A2
:101044000AEF03F0948C948E220EAF6E000EB06EF5
:10105400B886AC84AC98AC8AAB8EAB881200016EB7
:1010640001C0ADFFACA239EF08F03BEF08F034EF5C
:1010740008F012000F0EC16E000E956E000E836E06
:0A1084009368F19ED09EF2861200E0
:020000040020DA
:08000000FFFFFFFFFFFFFFFF00
:020000040030CA
:0E000000FF01191EFF8385FF0FC00FE00F40A8
:00000001FF
