:0400000007EF00F016
:0A000800718227ED08F02AEF0FF0D7
:1006000000496E6974205541525421200A007065DA
:1006100072646575200067616E686F7520002564DF
:03062000200000B7
:100624000DEC0FF074EC0FF0010E4A6E060E4B6EDB
:1006340043EC0FF020EE80F0170EDE6AE806FDE2D0
:10064400000E0001CA6F010EC96F000EB16F000EDB
:10065400B06F20EE98F0170EDE6AE806FDE2000E99
:10066400BA6F000EB96F000EB36F000EB26F0001C7
:10067400D551D8A440EF03F042EF03F083EF03F029
:10068400010E0B6E010EBFEC0DF00001D305D41169
:10069400D8A44FEF03F051EF03F039EF03F0000E4D
:1006A400D46F000ED36F000E0B6E010EBFEC0DF075
:1006B400010E0001D56F56EC0FF00BC050F00CC0CA
:1006C40051F00DC052F00EC053F00FC054F010C0E2
:1006D40055F011C056F012C057F050C013F051C07D
:1006E40014F067EC0FF0150E516E4B0E506EBE0EEB
:1006F400E82EFED7502EFCD7512EFAD700D039EF72
:1007040003F0B051B111D8A48AEF03F08CEF03F0D9
:10071400C2EF03F0000EB86F000EB76FB8BF9CEFC6
:1007240003F0B85109E10C0EB75DD8A09CEF03F0BB
:100734009EEF03F0A0EF03F0BEEF03F039EC0EF0F0
:10074400030E17140001B46FB56B010EB425B46F1A
:10075400000EB521B56FD890B735D96EB835DA6EBD
:10076400800ED926000EDA22B4C0DEFFB5C0DDFF4C
:10077400B74BB82B90EF03F0000EB16F010EB06FC2
:10078400CB51CC11D8A4C9EF03F0CBEF03F017EF92
:1007940005F0F296000EC86F000EC76FF2EF04F07A
:1007A4001E0E4A6E060E4B6ED890C735D96EC835EC
:1007B400DA6E800ED926000EDA22DECF4CF0DDCFC1
:1007C4004DF043EC0FF00001CABFF4EF03F0CA513F
:1007D40007E1050EC95DD8B0F2EF03F0F4EF03F0C2
:1007E40037EF04F0010E0B6ED890C735D96EC835BB
:1007F400DA6E800ED926000EDA22DF50BFEC0DF03F
:10080400D8900001C735D96EC835DA6E800ED92666
:10081400000EDA22DF50CFEC0AF0150E516E4B0EAB
:10082400506EBE0EE82EFED7502EFCD7512EFAD7AE
:1008340000D0000E0B6ED8900001C735D96EC835B4
:10084400DA6E800ED926000EDA22DF50BFEC0DF0EE
:100854000B0E516E260E506E5E0EE82EFED7502EF5
:10086400FCD7512EFAD7EFEF04F0CABF43EF04F0E0
:10087400CA5109E1050EC95DD8A043EF04F045EF64
:1008840004F097EF04F0CABF53EF04F0CA5107E134
:10089400090EC95DD8B051EF04F053EF04F097EF9F
:1008A40004F0010E0B6ED890C735D96EC835DA6ED8
:1008B400800ED926000EDA22DF50BFEC0DF0D8905E
:1008C4000001C735D96EC835DA6E800ED926000E00
:1008D400DA22DF50CFEC0AF0090E516E1E0E506E74
:1008E400E40EE82EFED7502EFCD7512EFAD700D0B6
:1008F400000E0B6ED8900001C735D96EC835DA6E7C
:10090400800ED926000EDA22DF50BFEC0DF0050E62
:10091400516E0F0E506EF10EE82EFED7502EFCD7FE
:10092400512EFAD700F0EFEF04F0CABFA3EF04F0A2
:10093400CA5109E1090EC95DD8A0A3EF04F0A5EFDF
:1009440004F0EFEF04F0CABFB3EF04F0CA5107E1BB
:100954000D0EC95DD8B0B1EF04F0B3EF04F0EFEFC2
:1009640004F0010E0B6ED890C735D96EC835DA6E17
:10097400800ED926000EDA22DF50BFEC0DF0D8909D
:100984000001C735D96EC835DA6E800ED926000E3F
:10099400DA22DF50CFEC0AF0040E516E0C0E506ECA
:1009A400340EE82EFED7502EFCD7512EFAD7000E67
:1009B4000B6ED8900001C735D96EC835DA6E800E3B
:1009C400D926000EDA22DF50BFEC0DF0820E506EF5
:1009D400DE0EE82EFED7502EFCD70001C74BC82BE5
:1009E400C951C75DC851800A506ECA51800A505817
:1009F400D8A0FFEF04F001EF05F0D2EF03F0000EF2
:100A0400CC6F010ECB6F000ED46F000ED36F000EAF
:100A1400D26F000ED16F000ED06F000ECF6F000E9C
:100A2400CE6F000ECD6FF286F290CB05CC11D8A418
:100A34001EEF05F020EF05F0FAEF07F0D305D4110F
:100A4400D8A427EF05F029EF05F0A2EF05F0000E7A
:100A5400D46F000ED36F000EBA6F010EB96F000E83
:100A6400C06F000EBF6F91EF05F0D890BF35D96EFF
:100A7400C035DA6E980ED926000EDA22DE50DE106A
:100A8400D8A447EF05F049EF05F08FEF05F0D890B3
:100A9400BF35D96EC035DA6E980ED926000EDA222B
:100AA400010EDE6E000EDD6EFF0EC925506EFF0EC8
:100AB400CA21516E5050BF5DC051800A526E5150D0
:100AC400800A5258D8B069EF05F06BEF05F01AEFC1
:100AD40007F0D890BF35D96EC035DA6E980ED92696
:100AE400000EDA22D890BF35E16EC035E26E800E7A
:100AF400E126000EE222DE50E61807E1DE50E61899
:100B0400D8A487EF05F089EF05F01AEF07F0000E7F
:100B1400BA6F000EB96F1AEF07F0BF4BC02BC95163
:100B2400BF5DC051800A506ECA51800A5058D8A087
:100B34009EEF05F0A0EF05F037EF05F01AEF07F090
:100B4400D105D211D8A4A9EF05F0ABEF05F020EF41
:100B540006F0000ED26F000ED16F000EBA6F010EB8
:100B6400B96F000EC26F000EC16F0FEF06F0D89080
:100B7400C135D96EC235DA6E980ED926000EDA2246
:100B8400DE50DE10D8A4C9EF05F0CBEF05F00DEF71
:100B940006F0D890C135D96EC235DA6E980ED926D2
:100BA400000EDA22020EDE6E000EDD6EFF0EC92587
:100BB400506EFF0ECA21516E5050C15DC251800A61
:100BC400526E5150800A5258D8B0EBEF05F0EDEF59
:100BD40005F01AEF07F0D890C135D96EC235DA6E38
:100BE400980ED926000EDA22D890C135E16EC235AE
:100BF400E26E800EE126000EE222DE50E61807E1E6
:100C0400DE50E618D8A409EF06F00BEF06F01AEF51
:100C140007F089EF05F0C14BC22BC951C15DC25128
:100C2400800A506ECA51800A5058D8A01CEF06F0B2
:100C34001EEF06F0B9EF05F01AEF07F0CF05D0115B
:100C4400D8A427EF06F029EF06F09EEF06F0000E79
:100C5400D06F000ECF6F000EBA6F010EB96F000E89
:100C6400C46F000EC36F8DEF06F0D890C335D96EF4
:100C7400C435DA6E980ED926000EDA22DE50DE1064
:100C8400D8A447EF06F049EF06F08BEF06F0D890B2
:100C9400C335D96EC435DA6E980ED926000EDA2221
:100CA400030EDE6E000EDD6EFF0EC925506EFF0EC4
:100CB400CA21516E5050C35DC451800A526E5150C6
:100CC400800A5258D8B069EF06F06BEF06F01AEFBD
:100CD40007F0D890C335D96EC435DA6E980ED9268C
:100CE400000EDA22D890C335E16EC435E26E800E70
:100CF400E126000EE222DE50E61807E1DE50E61897
:100D0400D8A487EF06F089EF06F01AEF07F089EF11
:100D140005F0C34BC42BC951C35DC451800A506E46
:100D2400CA51800A5058D8A09AEF06F09CEF06F0FA
:100D340037EF06F01AEF07F0CD05CE11D8A4A5EFD2
:100D440006F0A7EF06F01AEF07F0000ECE6F000EC4
:100D5400CD6F000EBA6F010EB96F000EC66F000E94
:100D6400C56F0BEF07F0D890C535D96EC635DA6E6E
:100D7400980ED926000EDA22DE50DE10D8A4C5EF74
:100D840006F0C7EF06F009EF07F0D890C535D96E25
:100D9400C635DA6E980ED926000EDA22040EDE6EFF
:100DA400000EDD6EFF0EC925506EFF0ECA21516E76
:100DB4005050C55DC651800A526E5150800A525837
:100DC400D8B0E7EF06F0E9EF06F01AEF07F0D89095
:100DD400C535D96EC635DA6E980ED926000EDA22DC
:100DE400D890C535E16EC635E26E800EE126000E60
:100DF400E222DE50E61807E1DE50E618D8A405EF3B
:100E040007F007EF07F01AEF07F089EF05F0C54B7D
:100E1400C62BC951C55DC651800A506ECA51800A9D
:100E24005058D8A018EF07F01AEF07F0B5EF06F006
:100E3400B905BA11D8A421EF07F023EF07F0FAEFB0
:100E440007F0000EBE6F000EBD6F61EF07F01E0EBF
:100E54004A6E060E4B6ED890BD35D96EBE35DA6E2D
:100E6400980ED926000EDA22DECF4CF0DDCF4DF0FD
:100E740043EC0FF0D8900001BD35D96EBE35DA6E63
:100E8400800ED926000EDA22D890BD35E16EBE352B
:100E9400E26E980EE126000EE222DE50E61809E129
:100EA400DE50E618D8B459EF07F05BEF07F05FEFB8
:100EB40007F0000EB36F010EB26FBD4BBE2BC951CC
:100EC400BD5DBE51800A506ECA51800A5058D8A0E8
:100ED4006EEF07F070EF07F029EF07F0B205B311DA
:100EE400D8A477EF07F079EF07F0C0EF07F00E0E04
:100EF4004A6E060E4B6E43EC0FF023EC0AF0000E24
:100F04000001B16F000EB06F000ECC6F000ECB6FFE
:100F1400000EBA6F000EB96F000EB36F000EB26F01
:100F2400000ECA6F010EC96F000EBB6F0B0EBB65BE
:100F34009EEF07F0A0EF07F0A2EF07F0AFEF07F086
:100F4400BB51020D980EF324D96E000EF420DA6E14
:100F5400DE6ADD6ABB2B98EF07F0150E516E4B0E5F
:100F6400506EBE0EE82EFED7502EFCD7512EFAD767
:100F740000D0000E0001D56FFAEF07F0160E4A6E8E
:100F8400060E4B6E43EC0FF00001C94BCA2B000E4A
:100F9400CC6F000ECB6F000EBA6F000EB96F000E4F
:100FA400B36F000EB26F000EBC6F0B0EBC65DDEFAD
:100FB40007F0DFEF07F0E1EF07F0EEEF07F0BC51C9
:100FC400020D980EF324D96E000EF420DA6EDE6A58
:100FD400DD6ABC2BD7EF07F0150E516E4B0E506E29
:100FE400BE0EE82EFED7502EFCD7512EFAD700D0D5
:100FF4000001CABF07EF08F0CA5109E10D0EC95D2F
:10100400D8A007EF08F009EF08F039EF03F0000E5D
:10101400B16F000EB06F000ECA6F010EC96F000EE3
:10102400D56F000EB66F020EB6651BEF08F01DEF0C
:1010340008F01FEF08F039EF03F078EC0BF0000133
:10104400B62B15EF08F007EF00F00600F2A42DEF21
:1010540008F02FEF08F03EEF08F0F80ED76E470EB9
:10106400D66E010E6026000E612262226322642283
:10107400652266226722F294F2A043EF08F045EF5E
:1010840008F057EF09F0F2A64AEF08F04CEF08F029
:1010940057EF09F081BA51EF08F053EF08F092EFDF
:1010A40008F0020E026E040E016EBA0EE82EFED790
:1010B400012EFCD7022EFAD700D081BA64EF08F0D3
:1010C40066EF08F056EF09F0000E0001D46F010E30
:1010D400D36F8380000E046E000E036E8284030EB1
:1010E400016E980EE82EFED7012EFCD78294030ED3
:1010F400016E980EE82EFED7012EFCD7034A042A6F
:1011040004BE8DEF08F0045008E10328D8A08DEF49
:1011140008F08FEF08F070EF08F0839056EF09F0B5
:1011240081B897EF08F099EF08F0D8EF08F0020EB5
:10113400026E040E016EBA0EE82EFED7012EFCD705
:10114400022EFAD700D081B8AAEF08F0ACEF08F06D
:1011540056EF09F0000E0001D26F010ED16F8382A9
:10116400000E066E000E056E8284E40E00D000D0E0
:10117400E82EFCD700D000D08294E40E00D000D03A
:10118400E82EFCD700D000D0054A062A06BED3EFCD
:1011940008F0065008E10528D8A0D3EF08F0D5EFF1
:1011A40008F0B6EF08F0839256EF09F081BEDDEF48
:1011B40008F0DFEF08F018EF09F0020E026E040EDB
:1011C400016EBA0EE82EFED7012EFCD7022EFAD7F6
:1011D40000D081BEF0EF08F0F2EF08F056EF09F00E
:1011E400000E0001D06F010ECF6F8384000E086ED5
:1011F400000E076E8284F00E00D0E82EFDD7829494
:10120400F00E00D0E82EFDD7074A082A08BE13EFD7
:1012140009F0085008E10728D8A013EF09F015EFEA
:1012240009F0FCEF08F0839456EF09F081BC1DEF40
:1012340009F01FEF09F056EF09F0020E026E040EDA
:10124400016EBA0EE82EFED7012EFCD7022EFAD775
:1012540000D081BC30EF09F032EF09F056EF09F00D
:10126400000E0001CE6F010ECD6F8386000E0A6E54
:10127400000E096E8284A00E00D0E82EFDD7829461
:10128400A00E00D0E82EFDD7094A0A2A0ABE53EF61
:1012940009F00A5008E10928D8A053EF09F055EFE6
:1012A40009F03CEF09F08396F290719211002ABE86
:1012B4005EEF09F061EF09F0010E62EF09F0000E34
:1012C400336E3350D8B469EF09F06BEF09F06FEF68
:1012D40009F0296C2A1ED8B02A2A6BBE76EF09F0D1
:1012E40074EF09F07CEF09F0000E2E6E010E2D6EE6
:1012F40080EF09F06AC02DF06BC02EF068C02FF0AB
:1013040069C030F03350D8B48AEF09F08CEF09F09B
:10131400A3EF09F02F06D8A030063350D8A495EFD8
:1013240009F097EF09F09DEF09F0000E2C6E2B0EDB
:101334002B6EA1EF09F0000E2C6E2D0E2B6E2BC020
:1013440033F0000E326E1F0E316E000E0001F56F89
:10135400DCEF09F03106D8A03206D60E3124D96E5E
:10136400000E3220DA6E29C00BF02AC00CF0000EF9
:101374000E6E0A0E0D6E67EC0DF00BC011F00CC072
:1013840012F0EDEC0EF01150300FDF6E2D06D8A0E8
:101394002E062F06D8A0300629C00BF02AC00CF068
:1013A400000E0E6E0A0E0D6E05EC0DF00BC029F04A
:1013B4000CC02AF032BEE7EF09F0325008E13104E4
:1013C400D8A0E7EF09F0E9EF09F0FFEF09F02950A1
:1013D4002A10D8A4F0EF09F0F2EF09F0ACEF09F00D
:1013E4002EBEFFEF09F02E5006E12D04D8B0FDEF1C
:1013F40009F0FFEF09F0ACEF09F03350D8B405EF72
:101404000AF007EF0AF012EF0AF03106D8A032060C
:10141400D60E3124D96E000E3220DA6E33C0DFFFCF
:1014240027C01CF028C01DF0D60E31241E6E000EFD
:1014340032201F6E2FC020F030C021F0FCEC0DF0E4
:1014440012008380838283848386000E0E6E000ED6
:101454000D6E8284040E0B6E1C0EE82EFED70B2E2E
:10146400FCD700D08294040E0B6E1C0EE82EFED71F
:101474000B2EFCD700D00D4A0E2A0EBE4AEF0AF0FE
:101484000E5008E10D28D8A04AEF0AF04CEF0AF0FC
:101494002BEF0AF08390839283948396050E0C6E4F
:1014A4000F0E0B6EF10EE82EFED70B2EFCD70C2E72
:1014B400FAD700F08380838283848386000E106EC3
:1014C400000E0F6E8284050E0B6E260EE82EFED7DC
:1014D4000B2EFCD700D08294050E0B6E260EE82E40
:1014E400FED70B2EFCD700D00F4A102A10BE83EF74
:1014F4000AF0105008E10F28D8A083EF0AF085EF16
:101504000AF064EF0AF08390839283948396050E25
:101514000C6E0F0E0B6EF10EE82EFED70B2EFCD7C1
:101524000C2EFAD700F08380838283848386000E96
:10153400126E000E116E8284060E0B6E300EE82EB3
:10154400FED70B2EFCD700D08294060E0B6E300E05
:10155400E82EFED70B2EFCD700D0114A122A12BE59
:10156400BCEF0AF0125008E11128D8A0BCEF0AF031
:10157400BEEF0AF09DEF0AF08390839283948396E2
:10158400050E0C6E0F0E0B6EF10EE82EFED70B2E11
:10159400FCD70C2EFAD700F012000D6E5AEF0BF0A8
:1015A400000E0F6E000E0E6E8284030E0B6E980EEC
:1015B400E82EFED70B2EFCD78294030E0B6E980EEA
:1015C400E82EFED70B2EFCD70E4A0F2A0FBEF3EFE0
:1015D4000AF00F5008E10E28D8A0F3EF0AF0F5EF57
:1015E4000AF0D6EF0AF077EF0BF0000E116E000E42
:1015F400106E8284E40E00D000D0E82EFCD700D018
:1016040000D08294E40E00D000D0E82EFCD700D0A5
:1016140000D0104A112A11BE18EF0BF0115008E146
:101624001028D8A018EF0BF01AEF0BF0FBEF0AF01C
:1016340077EF0BF0000E136E000E126E8284F00E24
:1016440000D0E82EFDD78294F00E00D0E82EFDD70E
:10165400124A132A13BE37EF0BF0135008E1122875
:10166400D8A037EF0BF039EF0BF020EF0BF077EF4A
:101674000BF0000E156E000E146E8284A00E00D0C6
:10168400E82EFDD78294A00E00D0E82EFDD7144A90
:10169400152A15BE56EF0BF0155008E11428D8A0F2
:1016A40056EF0BF058EF0BF03FEF0BF077EF0BF02A
:1016B4000D500B6E0C6A0C50000AD8B464EF0BF09A
:1016C40077EF0BF00B50010AD8B4D2EF0AF0030AFB
:1016D400D8B4F7EF0AF0010AD8B41CEF0BF0070AEC
:1016E400D8B43BEF0BF077EF0BF012008380000EC1
:1016F4000D6E000E0C6E8284040E0B6EA20EE82E8C
:10170400FED70B2EFCD78294040E0B6EA20EE82E8D
:10171400FED70B2EFCD70C4A0D2A0DBE9AEF0BF008
:101724000D5008E10C28D8A09AEF0BF09CEF0BF0B9
:101734007DEF0BF083908382000E0F6E000E0E6E11
:101744008284040E0B6E1C0EE82EFED70B2EFCD7E3
:1017540000D08294040E0B6E1C0EE82EFED70B2EC6
:10176400FCD700D00E4A0F2A0FBEC1EF0BF00F506A
:1017740008E10E28D8A0C1EF0BF0C3EF0BF0A2EFE5
:101784000BF083928384000E116E000E106E82841F
:10179400030E0B6E980EE82EFED70B2EFCD7829408
:1017A400030E0B6E980EE82EFED70B2EFCD7104AB4
:1017B400112A11BEE6EF0BF0115008E11028D8A051
:1017C400E6EF0BF0E8EF0BF0C9EF0BF083948386A0
:1017D400000E136E000E126E8284E40E00D000D050
:1017E400E82EFCD700D000D08294E40E00D000D0C4
:1017F400E82EFCD700D000D0124A132A13BE0BEFF8
:101804000CF0135008E11228D8A00BEF0CF00DEFE8
:101814000CF0EEEF0BF08396120036C0D9FF37C000
:10182400DAFFDECFF6FFDDCFF7FF0800F550250A1B
:10183400D8A41FEF0CF021EF0CF08BEF0CF036C0A6
:10184400D9FF37C0DAFFDE2A000EDD22000E696EF2
:10185400000E686E68C06CF06A686B6836C0D9FFA9
:1018640037C0DAFFDECF40F0DDCF41F040C0F6FFF5
:1018740041C0F7FF0800F550640AD8B444EF0CF0F7
:1018840046EF0CF054EF0CF040C0F6FF41C0F7FFF8
:101894000800F550690AD8A452EF0CF054EF0CF08C
:1018A40082EF0CF038C0D9FF39C0DAFFDFCF3AF04D
:1018B400020EDE26DFCF3BF0000EDD223AC0D9FF58
:1018C4003BC0DAFFDECF3CF0DDCF3DF0010E40241B
:1018D4003A6E000E41203B6E36C0D9FF37C0DAFFA6
:1018E4003AC0DEFF3BC0DDFF34C027F035C028F02E
:1018F4003CC029F03DC02AF059EC09F09FEF0CF0F0
:1019040036C0D9FF37C0DAFFDE2A000EDD229FEF92
:101914000CF036C0D9FF37C0DAFFDECFF6FFDDCFDB
:10192400F7FF0800F5500C6E0D6A34C00EF035C098
:101934000FF0A0EC0CF082EF0CF012000E500F1020
:10194400D8B4A7EF0CF0A9EF0CF0B2EF0CF00E50E6
:101954000F10D8A4B0EF0CF0B2EF0CF0B7EF0CF00E
:101964000C5081EC0FF004EF0DF020EE0AF00E5055
:10197400D9260F50DA22DE50DE10D8B4C4EF0CF0B2
:10198400C6EF0CF0E1EF0CF020EE0AF00E50D92671
:101994000F50DA2210EE03F00E50E1260F50E2222F
:1019A400DE50E65CE650800A146EDE50800A14585D
:1019B400D8B0DFEF0CF0E1EF0CF004EF0DF020EE07
:1019C40003F00E50D9260F50DA22DECF10F0DDCF0F
:1019D40011F00EC0D9FF0FC0DAFFDECF12F0DDCF59
:1019E40013F010501224D96E11501320DA6E0CC06B
:1019F400DFFF20EE03F00E50D9260F50DA22DE2A44
:101A0400000EDD221200000E106E0EBE0EEF0DF061
:101A14000CEF0DF014EF0DF00D6C0E1ED8B00E2A65
:101A2400010E106E0CBE1BEF0DF019EF0DF021EF3F
:101A34000DF00B6C0C1ED8B00C2A010E101A000EFF
:101A4400126E000E116E0D500E10D8B42CEF0DF066
:101A54002EEF0DF056EF0DF0010E0F6E36EF0DF078
:101A6400D8900D360E360F2A0EAE3BEF0DF03DEF3B
:101A74000DF032EF0DF0D890113612360D500B5C8C
:101A84000E500C58D8A049EF0DF04BEF0DF050EF6D
:101A94000DF00D500B5E0E500C5A1180D8900E3282
:101AA4000D320F2E3DEF0DF01050D8B45CEF0DF059
:101AB4005EEF0DF062EF0DF0116C121ED8B0122A19
:101AC40011C00BF012C00CF01200000E106E0CBE10
:101AD40070EF0DF06EEF0DF076EF0DF00B6C0C1E49
:101AE400D8B00C2A010E106E0EBE7DEF0DF07BEF08
:101AF4000DF081EF0DF00D6C0E1ED8B00E2A0D50B6
:101B04000E10D8B488EF0DF08AEF0DF0AEEF0DF0A3
:101B1400010E0F6E92EF0DF0D8900D360E360F2A8F
:101B24000EAE97EF0DF099EF0DF08EEF0DF00D5016
:101B34000B5C0E500C58D8A0A2EF0DF0A4EF0DF0E2
:101B4400A8EF0DF00D500B5E0E500C5AD8900E32CB
:101B54000D320F2E99EF0DF01050D8B4B4EF0DF0F4
:101B6400B6EF0DF0BAEF0DF00B6C0C1ED8B00C2ACA
:101B74000BC00BF00CC00CF012000E6EDEEF0DF07B
:101B84000BB002D0839001D08380FBEF0DF00BB03B
:101B940002D0839201D08382FBEF0DF00BB002D010
:101BA400839401D08384FBEF0DF00BB002D08396B5
:101BB40001D08386FBEF0DF00E500C6E0D6A0D50B4
:101BC400000AD8B4E8EF0DF0FBEF0DF00C50010A59
:101BD400D8B4C2EF0DF0030AD8B4C9EF0DF0010A6E
:101BE400D8B4D0EF0DF0070AD8B4D7EF0DF0FBEF5F
:101BF4000DF0120021BE01EF0EF003EF0EF009EF1D
:101C04000EF020C025F021C026F00DEF0EF0000EDE
:101C1400266E000E256E000E246E000E236E1FEF3E
:101C24000EF0000E0D6E200E0C6E1CC00EF01DC0CA
:101C34000FF0A0EC0CF0234A242A2550235C2450F6
:101C4400800A226E2650800A2258D8A02CEF0EF06B
:101C54002EEF0EF013EF0EF01EC015F01FC016F09D
:101C64001CC017F01DC018F0CBEC0EF012006DC0B4
:101C74000BF06EC00CF06FC00DF070C00EF02D0EA6
:101C84000F6E7F0E106E950E116E4C0E126E6FEC71
:101C94000EF0010E0B246D6E000E0C206E6E000E05
:101CA4000D206F6E000E0E20706E6DC019F06EC0A8
:101CB4001AF06FC01BF070C01CF0120E67EF0EF02C
:101CC400D8901C321B321A321932E82E62EF0EF011
:101CD40019C017F01AC018F01200000E136E000E8F
:101CE400146E000E156E000E166E0BA07CEF0EF037
:101CF4007EEF0EF086EF0EF00F50132610501422D4
:101D04001150152212501622D8900F361036113663
:101D14001236D8900E320D320C320B320B500C109E
:101D24000D100E10D8A499EF0EF09BEF0EF077EF84
:101D34000EF013C00BF014C00CF015C00DF016C05B
:101D44000EF0120044C048F045C049F0B8EF0EF060
:101D540042C034F043C035F0480E366E000E376E84
:101D640046C038F047C039F00FEC0CF048C0F6FF1D
:101D740049C0F7FF0800F5500009D8A4C4EF0EF0DD
:101D8400C6EF0EF0AAEF0EF0000E436E000E426E88
:101D94001200000E1B6E000E1A6EDCEF0EF019C05E
:101DA4000CF00D6A17C00EF018C00FF0A0EC0CF088
:101DB4001A4A1B2A1A501524D96E1B501620DA6EA3
:101DC400DF50196E1950D8A4EAEF0EF0ECEF0EF0C4
:101DD400D1EF0EF0120012BEFAEF0EF0125006E12F
:101DE4001104D8B0F8EF0EF0FAEF0EF008EF0FF090
:101DF40011C013F012C014F0131E141E134A142A37
:101E040013C011F014C012F00CEF0FF011C011F058
:101E140012C012F012000F0EC16E000E956E000E6D
:101E2400836E93689494F19ED09EF292F090F28621
:101E3400F19CF19AF288F086F28ED59CD59AD586DB
:101E4400D58EF80ED76E470ED66EF294F28A120033
:101E540001EE00F0300EEE6AE806FDE100EECBF094
:101E64002B0EEE6AE806FDE100EE58F0190EEE6A5C
:101E7400E806FDE171907192000EF86E000112EF18
:101E840003F04C0E4E6E000E4F6E000E426E000EAE
:101E9400436E4AC044F04BC045F04E0E466E000EF1
:101EA400476EA4EC0EF0120060C00BF061C00CF0A1
:101EB40062C00DF063C00EF064C00FF065C010F096
:101EC40066C011F067C012F01200FF0E1324156EE5
:101ED400FF0E1420166E15C06DF016C06EF06F6AFA
:101EE400706A1200948C948E220EAF6E000EB06E47
:101EF400B886AC84AC98AC8AAB8EAB8812000B6EFF
:101F04000BC0ADFFACA289EF0FF08BEF0FF084EFA5
:041F14000FF01200B8
:020000040020DA
:08000000FFFFFFFFFFFFFFFF00
:020000040030CA
:0E000000FF01191EFF8385FF0FC00FE00F40A8
:00000001FF
