:0400000007EF00F016
:0A00080065822CED06F0A0EF0BF06E
:1006000000496E6974205541525421200A007065DA
:1006100072646575200067616E686F7520002564DF
:03062000200000B7
:10062400C6EC0BF0D9EC0BF0010E4A6E060E4B6EC5
:10063400B3EC0BF020EEC0F0070EDE6AE806FDE234
:10064400000E0001E56F000EE46F000EB96F000E9E
:10065400B86F000EBF6F000EBE6F20EEC8F0070E1D
:10066400DE6AE806FDE2000ED16F000ED06F000EC8
:10067400BB6F000EBA6F000EBD6F000EBC6F0001A1
:10068400E451E511D8A449EF03F04BEF03F0C6EFB2
:1006940005F0B851B911D8A452EF03F054EF03F0A8
:1006A40086EF03F0000ED36F000ED26FCCEC0AF08D
:1006B400030E17140001D66FD76B010ED625D66F23
:1006C400000ED721D76FD890D235D96ED335DA6ED4
:1006D400C00ED926000EDA22D6C0DEFFD7C0DDFF59
:1006E400D24BD32BD3BF80EF03F0D35109E1040ED7
:1006F400D25DD8A080EF03F082EF03F058EF03F04F
:10070400000EB96F010EB86FBE51BF11D8A48DEFA2
:1007140003F08FEF03F0ECEF03F0000ED96F000E3F
:10072400D86F1E0E4A6E060E4B6ED890D835D96E11
:10073400D935DA6EC00ED926000EDA22DECF4CF09F
:10074400DDCF4DF0B3EC0BF0010E0B6ED890000131
:10075400D835D96ED935DA6EC00ED926000EDA2214
:10076400DF5052EC0AF0150E516E4B0E506EBE0E59
:10077400E82EFED7502EFCD7512EFAD700D0000E0B
:100784000B6ED8900001D835D96ED935DA6EC00E0B
:10079400D926000EDA22DF5052EC0AF00B0E516E0D
:1007A400260E506E5E0EE82EFED7502EFCD7512E2C
:1007B400FAD70001D84BD92BD9BFEAEF03F0D951AE
:1007C40009E1040ED85DD8A0EAEF03F0ECEF03F0E2
:1007D40093EF03F0000EBF6F010EBE6F96059711E5
:1007E400D8A4F7EF03F0F9EF03F04CEF04F0000E98
:1007F400976F000E966F000ED16F010ED06F000E32
:10080400DB6F000EDA6FDBBF11EF04F0DB5109E19F
:10081400040EDA5DD8A011EF04F013EF04F015EF25
:1008240004F054EF05F0D890DA35D96EDB35DA6E82
:10083400C80ED926000EDA22DE50DE10D8A425EF29
:1008440004F027EF04F048EF04F0D890DA35D96EBD
:10085400DB35DA6EC80ED926000EDA22010EDE6E02
:10086400000EDD6EDBBF42EF04F0DB5107E1030E47
:10087400DA5DD8B040EF04F042EF04F054EF05F035
:10088400000ED16F000ED06F54EF05F0DA4BDB2B66
:1008940005EF04F094059511D8A453EF04F055EF37
:1008A40004F0A4EF04F0000E956F000E946F000E98
:1008B400D16F010ED06F000EDD6F000EDC6FDDBF57
:1008C4006DEF04F0DD5109E1040EDC5DD8A06DEF9D
:1008D40004F06FEF04F071EF04F054EF05F0D890DA
:1008E400DC35D96EDD35DA6EC80ED926000EDA2273
:1008F400DE50DE10D8A481EF04F083EF04F0A0EF03
:1009040004F0D890DC35D96EDD35DA6EC80ED92600
:10091400000EDA22020EDE6E000EDD6EDDBF9EEFEB
:1009240004F0DD5107E1030EDC5DD8B09CEF04F068
:100934009EEF04F054EF05F042EF04F0DC4BDD2BA6
:1009440061EF04F092059311D8A4ABEF04F0ADEF7E
:1009540004F0FCEF04F0000E936F000E926F000E93
:10096400D16F010ED06F000EDF6F000EDE6FDFBFA0
:10097400C5EF04F0DF5109E1040EDE5DD8A0C5EF38
:1009840004F0C7EF04F0C9EF04F054EF05F0D89079
:10099400DE35D96EDF35DA6EC80ED926000EDA22BE
:1009A400DE50DE10D8A4D9EF04F0DBEF04F0F8EF4A
:1009B40004F0D890DE35D96EDF35DA6EC80ED9264C
:1009C400000EDA22030EDE6E000EDD6EDFBFF6EFE0
:1009D40004F0DF5107E1030EDE5DD8B0F4EF04F05C
:1009E400F6EF04F054EF05F042EF04F0DE4BDF2B9A
:1009F400B9EF04F090059111D8A403EF05F005EFC9
:100A040005F054EF05F0000E916F000E906F000E8C
:100A1400D16F010ED06F000EE16F000EE06FE1BFE9
:100A24001DEF05F0E15109E1040EE05DD8A01DEFD2
:100A340005F01FEF05F021EF05F054EF05F0D89015
:100A4400E035D96EE135DA6EC80ED926000EDA2209
:100A5400DE50DE10D8A431EF05F033EF05F050EF8F
:100A640005F0D890E035D96EE135DA6EC80ED92696
:100A7400000EDA22040EDE6E000EDD6EE1BF4EEFD4
:100A840005F0E15107E1030EE05DD8B04CEF05F04D
:100A94004EEF05F054EF05F042EF04F0E04BE12B8C
:100AA40011EF05F0D005D111D8A45BEF05F05DEF8F
:100AB40005F041EF03F0000EE36F000EE26FE3BFB9
:100AC4006DEF05F0E35109E1040EE25DD8A06DEF8E
:100AD40005F06FEF05F071EF05F0ABEF05F01E0EBA
:100AE4004A6E060E4B6ED890E235D96EE335DA6E57
:100AF400C80ED926000EDA22DECF4CF0DDCF4DF041
:100B0400B3EC0BF0D8900001E235D96EE335DA6E20
:100B1400C00ED926000EDA22D890E235E16EE33514
:100B2400E26EC80EE126000EE222DE50E61809E16C
:100B3400DE50E618D8B4A1EF05F0A3EF05F0A7EF57
:100B440005F0000EBB6F010EBA6FE24BE32B61EFB1
:100B540005F0BA05BB11D8A4B2EF05F0B4EF05F067
:100B6400BCEF05F00E0E4A6E060E4B6EB3EC0BF0A6
:100B740041EF03F0160E4A6E060E4B6EB3EC0BF00B
:100B84000BEC08F041EF03F0E405E511D8A4CDEF38
:100B940005F0CFEF05F0D1EF05F041EF03F0020EC1
:100BA400E419E511D8A4D9EF05F0DBEF05F0DDEF8A
:100BB40005F041EF03F0030EE419E511D8A4E5EFC5
:100BC40005F0E7EF05F028EF06F0BC51BD11D8A4FD
:100BD400EEEF05F0F0EF05F041EF03F0000ED56FF6
:100BE400000ED46FD5BF00EF06F0D55109E1040E15
:100BF400D45DD8A000EF06F002EF06F004EF06F093
:100C040022EF06F0CCEC0AF0030E17140001D66FA5
:100C1400D76B010ED625D66F000ED721D76FD8908B
:100C2400D435D96ED535DA6EC00ED926000EDA2247
:100C3400D6C0DEFFD7C0DDFFD44BD52BF4EF05F0D3
:100C4400000EBD6F010EBC6F41EF03F041EF03F0E6
:100C540007EF00F00600F2A032EF06F034EF06F0E2
:100C64003FEF07F081BA39EF06F03BEF06F07AEF79
:100C740006F0020E026E040E016EBA0EE82EFED7C6
:100C8400012EFCD7022EFAD700D081BA4CEF06F021
:100C94004EEF06F03EEF07F0000E0001976F010ED5
:100CA400966F8380000E046E000E036E8284030E22
:100CB400016E980EE82EFED7012EFCD78294030E07
:100CC400016E980EE82EFED7012EFCD7034A042AA3
:100CD40004BE75EF06F0045008E10328D8A075EFB0
:100CE40006F077EF06F058EF06F083903EEF07F03A
:100CF40081B87FEF06F081EF06F0C0EF06F0020E38
:100D0400026E040E016EBA0EE82EFED7012EFCD739
:100D1400022EFAD700D081B892EF06F094EF06F0D5
:100D24003EEF07F0000E0001956F010E946F838271
:100D3400000E066E000E056E8284E40E00D000D014
:100D4400E82EFCD700D000D08294E40E00D000D06E
:100D5400E82EFCD700D000D0054A062A06BEBBEF19
:100D640006F0065008E10528D8A0BBEF06F0BDEF59
:100D740006F09EEF06F083923EEF07F081BEC5EFCA
:100D840006F0C7EF06F000EF07F0020E026E040E45
:100D9400016EBA0EE82EFED7012EFCD7022EFAD72A
:100DA40000D081BED8EF06F0DAEF06F03EEF07F090
:100DB400000E0001936F010E926F8384000E086E83
:100DC400000E076E8284F00E00D0E82EFDD78294C8
:100DD400F00E00D0E82EFDD7074A082A08BEFBEF24
:100DE40006F0085008E10728D8A0FBEF06F0FDEF55
:100DF40006F0E4EF06F083943EEF07F081BC05EFC4
:100E040007F007EF07F03EEF07F0020E026E040E44
:100E1400016EBA0EE82EFED7012EFCD7022EFAD7A9
:100E240000D081BC18EF07F01AEF07F03EEF07F08F
:100E3400000E0001916F010E906F8386000E0A6E02
:100E4400000E096E8284A00E00D0E82EFDD7829495
:100E5400A00E00D0E82EFDD7094A0A2A0ABE3BEFAD
:100E640007F00A5008E10928D8A03BEF07F03DEF4E
:100E740007F024EF07F08396F290659211002ABEE2
:100E840046EF07F049EF07F0010E4AEF07F0000EB6
:100E9400336E3350D8B451EF07F053EF07F057EFE8
:100EA40007F0296C2A1ED8B02A2A5FBE5EEF07F02D
:100EB4005CEF07F064EF07F0000E2E6E010E2D6E4E
:100EC40068EF07F05EC02DF05FC02EF05CC02FF01D
:100ED4005DC030F03350D8B472EF07F074EF07F010
:100EE4008BEF07F02F06D8A030063350D8A47DEF3F
:100EF40007F07FEF07F085EF07F0000E2C6E2B0E46
:100F04002B6E89EF07F0000E2C6E2D0E2B6E2BC06E
:100F140033F0000E326E1F0E316E000E0001B76FFB
:100F2400C4EF07F03106D8A03206980E3124D96EEA
:100F3400000E3220DA6E29C00BF02AC00CF0000E2D
:100F44000E6E0A0E0D6EFAEC09F00BC011F00CC017
:100F540012F080EC0BF01150300FDF6E2D06D8A08C
:100F64002E062F06D8A0300629C00BF02AC00CF09C
:100F7400000E0E6E0A0E0D6E98EC09F00BC029F0EF
:100F84000CC02AF032BECFEF07F0325008E1310432
:100F9400D8A0CFEF07F0D1EF07F0E7EF07F0295023
:100FA4002A10D8A4D8EF07F0DAEF07F094EF07F08F
:100FB4002EBEE7EF07F02E5006E12D04D8B0E5EF82
:100FC40007F0E7EF07F094EF07F03350D8B4EDEFF4
:100FD40007F0EFEF07F0FAEF07F03106D8A032067A
:100FE400980E3124D96E000E3220DA6E33C0DFFF42
:100FF40027C01CF028C01DF0980E31241E6E000E70
:1010040032201F6E2FC020F030C021F08FEC0AF088
:1010140012008380000E0D6E000E0C6E8284040E8E
:101024000B6EA20EE82EFED70B2EFCD78294040E74
:101034000B6EA20EE82EFED70B2EFCD70C4A0D2AFF
:101044000DBE2DEF08F00D5008E10C28D8A02DEFAF
:1010540008F02FEF08F010EF08F083908382000E61
:101064000F6E000E0E6E8284040E0B6E1C0EE82EA4
:10107400FED70B2EFCD700D08294040E0B6E1C0EF0
:10108400E82EFED70B2EFCD700D00E4A0F2A0FBE37
:1010940054EF08F00F5008E10E28D8A054EF08F0E0
:1010A40056EF08F035EF08F083928384000E116E3A
:1010B400000E106E8284030E0B6E980EE82EFED77F
:1010C4000B2EFCD78294030E0B6E980EE82EFED7DF
:1010D4000B2EFCD7104A112A11BE79EF08F01150DB
:1010E40008E11028D8A079EF08F07BEF08F05CEF56
:1010F40008F083948386000E136E000E126E8284B1
:10110400E40E00D000D0E82EFCD700D000D08294AA
:10111400E40E00D000D0E82EFCD700D000D0124A54
:10112400132A13BE9EEF08F0135008E11228D8A02A
:101134009EEF08F0A0EF08F081EF08F0839612000C
:1011440036C0D9FF37C0DAFFDECFF6FFDDCFF7FFB9
:101154000800F550250AD8A4B2EF08F0B4EF08F05F
:101164001EEF09F036C0D9FF37C0DAFFDE2A000EC1
:10117400DD22000E5D6E000E5C6E5CC060F05E6889
:101184005F6836C0D9FF37C0DAFFDECF40F0DDCF6D
:1011940041F040C0F6FF41C0F7FF0800F550640A73
:1011A400D8B4D7EF08F0D9EF08F0E7EF08F040C063
:1011B400F6FF41C0F7FF0800F550690AD8A4E5EF2F
:1011C40008F0E7EF08F015EF09F038C0D9FF39C08F
:1011D400DAFFDFCF3AF0020EDE26DFCF3BF0000E5F
:1011E400DD223AC0D9FF3BC0DAFFDECF3CF0DDCFD1
:1011F4003DF0010E40243A6E000E41203B6E36C095
:10120400D9FF37C0DAFF3AC0DEFF3BC0DDFF34C090
:1012140027F035C028F03CC029F03DC02AF041EC4D
:1012240007F032EF09F036C0D9FF37C0DAFFDE2A03
:10123400000EDD2232EF09F036C0D9FF37C0DAFFE5
:10124400DECFF6FFDDCFF7FF0800F5500C6E0D6A18
:1012540034C00EF035C00FF033EC09F015EF09F08F
:1012640012000E500F10D8B43AEF09F03CEF09F019
:1012740045EF09F00E500F10D8A443EF09F045EFE5
:1012840009F04AEF09F00C50E6EC0BF097EF09F087
:1012940020EE0AF00E50D9260F50DA22DE50DE106E
:1012A400D8B457EF09F059EF09F074EF09F020EEC4
:1012B4000AF00E50D9260F50DA2210EE03F00E5029
:1012C400E1260F50E222DE50E65CE650800A146EFE
:1012D400DE50800A1458D8B072EF09F074EF09F0A8
:1012E40097EF09F020EE03F00E50D9260F50DA22C2
:1012F400DECF10F0DDCF11F00EC0D9FF0FC0DAFF42
:10130400DECF12F0DDCF13F010501224D96E11503D
:101314001320DA6E0CC0DFFF20EE03F00E50D92646
:101324000F50DA22DE2A000EDD221200000E106EAB
:101334000EBEA1EF09F09FEF09F0A7EF09F00D6CC5
:101344000E1ED8B00E2A010E106E0CBEAEEF09F0C0
:10135400ACEF09F0B4EF09F00B6C0C1ED8B00C2AFA
:10136400010E101A000E126E000E116E0D500E10AA
:10137400D8B4BFEF09F0C1EF09F0E9EF09F0010EAD
:101384000F6EC9EF09F0D8900D360E360F2A0EAE47
:10139400CEEF09F0D0EF09F0C5EF09F0D89011367F
:1013A40012360D500B5C0E500C58D8A0DCEF09F02F
:1013B400DEEF09F0E3EF09F00D500B5E0E500C5A0E
:1013C4001180D8900E320D320F2ED0EF09F010504C
:1013D400D8B4EFEF09F0F1EF09F0F5EF09F0116C73
:1013E400121ED8B0122A11C00BF012C00CF0120059
:1013F400000E106E0CBE03EF0AF001EF0AF009EFC5
:101404000AF00B6C0C1ED8B00C2A010E106E0EBE26
:1014140010EF0AF00EEF0AF014EF0AF00D6C0E1E36
:10142400D8B00E2A0D500E10D8B41BEF0AF01DEFE1
:101434000AF041EF0AF0010E0F6E25EF0AF0D89082
:101444000D360E360F2A0EAE2AEF0AF02CEF0AF0F4
:1014540021EF0AF00D500B5C0E500C58D8A035EF5C
:101464000AF037EF0AF03BEF0AF00D500B5E0E5016
:101474000C5AD8900E320D320F2E2CEF0AF0105069
:10148400D8B447EF0AF049EF0AF04DEF0AF00B6CBD
:101494000C1ED8B00C2A0BC00BF00CC00CF01200C0
:1014A4000E6E71EF0AF00BB002D0839001D08380EE
:1014B4008EEF0AF00BB002D0839201D083828EEFBC
:1014C4000AF00BB002D0839401D083848EEF0AF02B
:1014D4000BB002D0839601D083868EEF0AF00E50B3
:1014E4000C6E0D6A0D50000AD8B47BEF0AF08EEF33
:1014F4000AF00C50010AD8B455EF0AF0030AD8B424
:101504005CEF0AF0010AD8B463EF0AF0070AD8B412
:101514006AEF0AF08EEF0AF0120021BE94EF0AF08F
:1015240096EF0AF09CEF0AF020C025F021C026F0C7
:10153400A0EF0AF0000E266E000E256E000E246E3B
:10154400000E236EB2EF0AF0000E0D6E200E0C6E2C
:101554001CC00EF01DC00FF033EC09F0234A242AFE
:101564002550235C2450800A226E2650800A22587B
:10157400D8A0BFEF0AF0C1EF0AF0A6EF0AF01EC030
:1015840015F01FC016F01CC017F01DC018F05EEC5B
:101594000BF0120061C00BF062C00CF063C00DF0E0
:1015A40064C00EF02D0E0F6E7F0E106E950E116E30
:1015B4004C0E126E02EC0BF0010E0B24616E000E49
:1015C4000C20626E000E0D20636E000E0E20646E01
:1015D40061C019F062C01AF063C01BF064C01CF053
:1015E400120EFAEF0AF0D8901C321B321A3219325A
:1015F400E82EF5EF0AF019C017F01AC018F012001F
:10160400000E136E000E146E000E156E000E166E94
:101614000BA00FEF0BF011EF0BF019EF0BF00F50C5
:101624001326105014221150152212501622D8904D
:101634000F36103611361236D8900E320D320C3267
:101644000B320B500C100D100E10D8A42CEF0BF015
:101654002EEF0BF00AEF0BF013C00BF014C00CF0DC
:1016640015C00DF016C00EF0120044C048F045C07D
:1016740049F04BEF0BF042C034F043C035F0480E54
:10168400366E000E376E46C038F047C039F0A2EC13
:1016940008F048C0F6FF49C0F7FF0800F5500009FC
:1016A400D8A457EF0BF059EF0BF03DEF0BF0000E01
:1016B400436E000E426E1200000E1B6E000E1A6E78
:1016C4006FEF0BF019C00CF00D6A17C00EF018C0C4
:1016D4000FF033EC09F01A4A1B2A1A501524D96E5C
:1016E4001B501620DA6EDF50196E1950D8A47DEF06
:1016F4000BF07FEF0BF064EF0BF0120012BE8DEFD6
:101704000BF0125006E11104D8B08BEF0BF08DEF03
:101714000BF09BEF0BF011C013F012C014F0131E6A
:10172400141E134A142A13C011F014C012F09FEFB0
:101734000BF011C011F012C012F0120000EE80F094
:10174400380EEE6AE806FDE100EE54F0110EEE6A82
:10175400E806FDE165906592000EF86E000112EF57
:1017640003F04C0E4E6E000E4F6E000E426E000ED5
:10177400436E4AC044F04BC045F04E0E466E000E18
:10178400476E37EC0BF012000F0EC16E000E956E13
:10179400000E836E93689494F19ED09EF292F09022
:1017A400F286F19CF19AF288F086F28E1200948C03
:1017B400948E220EAF6E000EB06EB886AC84AC98D8
:1017C400AC8AAB8EAB8812000B6E0BC0ADFFACA223
:0E17D400EEEF0BF0F0EF0BF0E9EF0BF0120070
:020000040020DA
:08000000FFFFFFFFFFFFFFFF00
:020000040030CA
:0E000000FF01191EFF8385FF0FC00FE00F40A8
:00000001FF
